{
  "_format": "hh-sol-artifact-1",
  "contractName": "FurnitureSupplyChain",
  "sourceName": "contracts/FurnitureSupplyChain.sol",
  "abi": [
    {
      "anonymous": false,
      "inputs": [
        {
          "indexed": false,
          "internalType": "string",
          "name": "batchID",
          "type": "string"
        },
        {
          "indexed": false,
          "internalType": "string",
          "name": "supplierID",
          "type": "string"
        },
        {
          "indexed": false,
          "internalType": "string",
          "name": "forestLocation",
          "type": "string"
        },
        {
          "indexed": false,
          "internalType": "address",
          "name": "registeredBy",
          "type": "address"
        },
        {
          "indexed": false,
          "internalType": "uint256",
          "name": "timestamp",
          "type": "uint256"
        }
      ],
      "name": "TimberRegistered",
      "type": "event"
    },
    {
      "inputs": [
        {
          "internalType": "uint256",
          "name": "",
          "type": "uint256"
        }
      ],
      "name": "allBatchIDs",
      "outputs": [
        {
          "internalType": "string",
          "name": "",
          "type": "string"
        }
      ],
      "stateMutability": "view",
      "type": "function"
    },
    {
      "inputs": [
        {
          "internalType": "string",
          "name": "_batchID",
          "type": "string"
        }
      ],
      "name": "getTimberBatch",
      "outputs": [
        {
          "components": [
            {
              "internalType": "string",
              "name": "batchID",
              "type": "string"
            },
            {
              "internalType": "string",
              "name": "supplierID",
              "type": "string"
            },
            {
              "internalType": "string",
              "name": "forestLocation",
              "type": "string"
            },
            {
              "internalType": "string",
              "name": "certificationStatus",
              "type": "string"
            },
            {
              "internalType": "uint256",
              "name": "harvestDate",
              "type": "uint256"
            },
            {
              "internalType": "address",
              "name": "registeredBy",
              "type": "address"
            },
            {
              "internalType": "uint256",
              "name": "timestamp",
              "type": "uint256"
            },
            {
              "internalType": "bool",
              "name": "exists",
              "type": "bool"
            }
          ],
          "internalType": "struct FurnitureSupplyChain.TimberBatch",
          "name": "",
          "type": "tuple"
        }
      ],
      "stateMutability": "view",
      "type": "function"
    },
    {
      "inputs": [],
      "name": "getTotalBatches",
      "outputs": [
        {
          "internalType": "uint256",
          "name": "",
          "type": "uint256"
        }
      ],
      "stateMutability": "view",
      "type": "function"
    },
    {
      "inputs": [
        {
          "internalType": "string",
          "name": "_batchID",
          "type": "string"
        },
        {
          "internalType": "string",
          "name": "_supplierID",
          "type": "string"
        },
        {
          "internalType": "string",
          "name": "_forestLocation",
          "type": "string"
        },
        {
          "internalType": "string",
          "name": "_certificationStatus",
          "type": "string"
        },
        {
          "internalType": "uint256",
          "name": "_harvestDate",
          "type": "uint256"
        }
      ],
      "name": "registerTimberBatch",
      "outputs": [],
      "stateMutability": "nonpayable",
      "type": "function"
    },
    {
      "inputs": [
        {
          "internalType": "string",
          "name": "",
          "type": "string"
        }
      ],
      "name": "timberBatches",
      "outputs": [
        {
          "internalType": "string",
          "name": "batchID",
          "type": "string"
        },
        {
          "internalType": "string",
          "name": "supplierID",
          "type": "string"
        },
        {
          "internalType": "string",
          "name": "forestLocation",
          "type": "string"
        },
        {
          "internalType": "string",
          "name": "certificationStatus",
          "type": "string"
        },
        {
          "internalType": "uint256",
          "name": "harvestDate",
          "type": "uint256"
        },
        {
          "internalType": "address",
          "name": "registeredBy",
          "type": "address"
        },
        {
          "internalType": "uint256",
          "name": "timestamp",
          "type": "uint256"
        },
        {
          "internalType": "bool",
          "name": "exists",
          "type": "bool"
        }
      ],
      "stateMutability": "view",
      "type": "function"
    }
  ],
  "bytecode": "0x608060405234801561001057600080fd5b50611322806100206000396000f3fe608060405234801561001057600080fd5b50600436106100575760003560e01c806352ac30851461005c57806372b9e6571461008c578063bbf63ec7146100bc578063e561dddc146100d8578063fb332279146100f6575b600080fd5b61007660048036038101906100719190610bd6565b61012d565b60405161008391906110d4565b60405180910390f35b6100a660048036038101906100a19190610cee565b6104a1565b6040516100b39190610f70565b60405180910390f35b6100d660048036038101906100d19190610c17565b61054d565b005b6100e06107a1565b6040516100ed91906110f6565b60405180910390f35b610110600480360381019061010b9190610bd6565b6107ae565b604051610124989796959493929190610ffa565b60405180910390f35b610135610a59565b6000826040516101459190610f59565b908152602001604051809103902060070160009054906101000a900460ff166101a3576040517f08c379a000000000000000000000000000000000000000000000000000000000815260040161019a906110b4565b60405180910390fd5b6000826040516101b39190610f59565b9081526020016040518091039020604051806101000160405290816000820180546101dd90611234565b80601f016020809104026020016040519081016040528092919081815260200182805461020990611234565b80156102565780601f1061022b57610100808354040283529160200191610256565b820191906000526020600020905b81548152906001019060200180831161023957829003601f168201915b5050505050815260200160018201805461026f90611234565b80601f016020809104026020016040519081016040528092919081815260200182805461029b90611234565b80156102e85780601f106102bd576101008083540402835291602001916102e8565b820191906000526020600020905b8154815290600101906020018083116102cb57829003601f168201915b5050505050815260200160028201805461030190611234565b80601f016020809104026020016040519081016040528092919081815260200182805461032d90611234565b801561037a5780601f1061034f5761010080835404028352916020019161037a565b820191906000526020600020905b81548152906001019060200180831161035d57829003601f168201915b5050505050815260200160038201805461039390611234565b80601f01602080910402602001604051908101604052809291908181526020018280546103bf90611234565b801561040c5780601f106103e15761010080835404028352916020019161040c565b820191906000526020600020905b8154815290600101906020018083116103ef57829003601f168201915b50505050508152602001600482015481526020016005820160009054906101000a900473ffffffffffffffffffffffffffffffffffffffff1673ffffffffffffffffffffffffffffffffffffffff1673ffffffffffffffffffffffffffffffffffffffff168152602001600682015481526020016007820160009054906101000a900460ff1615151515815250509050919050565b600181815481106104b157600080fd5b9060005260206000200160009150905080546104cc90611234565b80601f01602080910402602001604051908101604052809291908181526020018280546104f890611234565b80156105455780601f1061051a57610100808354040283529160200191610545565b820191906000526020600020905b81548152906001019060200180831161052857829003601f168201915b505050505081565b60008560405161055d9190610f59565b908152602001604051809103902060070160009054906101000a900460ff16156105bc576040517f08c379a00000000000000000000000000000000000000000000000000000000081526004016105b390611094565b60405180910390fd5b6040518061010001604052808681526020018581526020018481526020018381526020018281526020013373ffffffffffffffffffffffffffffffffffffffff1681526020014281526020016001151581525060008660405161061f9190610f59565b90815260200160405180910390206000820151816000019080519060200190610649929190610ab6565b506020820151816001019080519060200190610666929190610ab6565b506040820151816002019080519060200190610683929190610ab6565b5060608201518160030190805190602001906106a0929190610ab6565b506080820151816004015560a08201518160050160006101000a81548173ffffffffffffffffffffffffffffffffffffffff021916908373ffffffffffffffffffffffffffffffffffffffff16021790555060c0820151816006015560e08201518160070160006101000a81548160ff02191690831515021790555090505060018590806001815401808255809150506001900390600052602060002001600090919091909150908051906020019061075a929190610ab6565b507f3c4817faafa8530e5ea234e076d64e8635ceb0ac05373605a3f8849eba46350b8585853342604051610792959493929190610f92565b60405180910390a15050505050565b6000600180549050905090565b6000818051602081018201805184825260208301602085012081835280955050505050506000915090508060000180546107e790611234565b80601f016020809104026020016040519081016040528092919081815260200182805461081390611234565b80156108605780601f1061083557610100808354040283529160200191610860565b820191906000526020600020905b81548152906001019060200180831161084357829003601f168201915b50505050509080600101805461087590611234565b80601f01602080910402602001604051908101604052809291908181526020018280546108a190611234565b80156108ee5780601f106108c3576101008083540402835291602001916108ee565b820191906000526020600020905b8154815290600101906020018083116108d157829003601f168201915b50505050509080600201805461090390611234565b80601f016020809104026020016040519081016040528092919081815260200182805461092f90611234565b801561097c5780601f106109515761010080835404028352916020019161097c565b820191906000526020600020905b81548152906001019060200180831161095f57829003601f168201915b50505050509080600301805461099190611234565b80601f01602080910402602001604051908101604052809291908181526020018280546109bd90611234565b8015610a0a5780601f106109df57610100808354040283529160200191610a0a565b820191906000526020600020905b8154815290600101906020018083116109ed57829003601f168201915b5050505050908060040154908060050160009054906101000a900473ffffffffffffffffffffffffffffffffffffffff16908060060154908060070160009054906101000a900460ff16905088565b6040518061010001604052806060815260200160608152602001606081526020016060815260200160008152602001600073ffffffffffffffffffffffffffffffffffffffff168152602001600081526020016000151581525090565b828054610ac290611234565b90600052602060002090601f016020900481019282610ae45760008555610b2b565b82601f10610afd57805160ff1916838001178555610b2b565b82800160010185558215610b2b579182015b82811115610b2a578251825591602001919060010190610b0f565b5b509050610b389190610b3c565b5090565b5b80821115610b55576000816000905550600101610b3d565b5090565b6000610b6c610b6784611142565b611111565b905082815260208101848484011115610b8457600080fd5b610b8f8482856111f2565b509392505050565b600082601f830112610ba857600080fd5b8135610bb8848260208601610b59565b91505092915050565b600081359050610bd0816112d5565b92915050565b600060208284031215610be857600080fd5b600082013567ffffffffffffffff811115610c0257600080fd5b610c0e84828501610b97565b91505092915050565b600080600080600060a08688031215610c2f57600080fd5b600086013567ffffffffffffffff811115610c4957600080fd5b610c5588828901610b97565b955050602086013567ffffffffffffffff811115610c7257600080fd5b610c7e88828901610b97565b945050604086013567ffffffffffffffff811115610c9b57600080fd5b610ca788828901610b97565b935050606086013567ffffffffffffffff811115610cc457600080fd5b610cd088828901610b97565b9250506080610ce188828901610bc1565b9150509295509295909350565b600060208284031215610d0057600080fd5b6000610d0e84828501610bc1565b91505092915050565b610d20816111aa565b82525050565b610d2f816111aa565b82525050565b610d3e816111bc565b82525050565b610d4d816111bc565b82525050565b6000610d5e82611172565b610d68818561117d565b9350610d78818560208601611201565b610d81816112c4565b840191505092915050565b6000610d9782611172565b610da1818561118e565b9350610db1818560208601611201565b610dba816112c4565b840191505092915050565b6000610dd082611172565b610dda818561119f565b9350610dea818560208601611201565b80840191505092915050565b6000610e0360188361118e565b91507f426174636820616c7265616479207265676973746572656400000000000000006000830152602082019050919050565b6000610e43600f8361118e565b91507f4261746368206e6f7420666f756e6400000000000000000000000000000000006000830152602082019050919050565b6000610100830160008301518482036000860152610e948282610d53565b91505060208301518482036020860152610eae8282610d53565b91505060408301518482036040860152610ec88282610d53565b91505060608301518482036060860152610ee28282610d53565b9150506080830151610ef76080860182610f3b565b5060a0830151610f0a60a0860182610d17565b5060c0830151610f1d60c0860182610f3b565b5060e0830151610f3060e0860182610d35565b508091505092915050565b610f44816111e8565b82525050565b610f53816111e8565b82525050565b6000610f658284610dc5565b915081905092915050565b60006020820190508181036000830152610f8a8184610d8c565b905092915050565b600060a0820190508181036000830152610fac8188610d8c565b90508181036020830152610fc08187610d8c565b90508181036040830152610fd48186610d8c565b9050610fe36060830185610d26565b610ff06080830184610f4a565b9695505050505050565b6000610100820190508181036000830152611015818b610d8c565b90508181036020830152611029818a610d8c565b9050818103604083015261103d8189610d8c565b905081810360608301526110518188610d8c565b90506110606080830187610f4a565b61106d60a0830186610d26565b61107a60c0830185610f4a565b61108760e0830184610d44565b9998505050505050505050565b600060208201905081810360008301526110ad81610df6565b9050919050565b600060208201905081810360008301526110cd81610e36565b9050919050565b600060208201905081810360008301526110ee8184610e76565b905092915050565b600060208201905061110b6000830184610f4a565b92915050565b6000604051905081810181811067ffffffffffffffff8211171561113857611137611295565b5b8060405250919050565b600067ffffffffffffffff82111561115d5761115c611295565b5b601f19601f8301169050602081019050919050565b600081519050919050565b600082825260208201905092915050565b600082825260208201905092915050565b600081905092915050565b60006111b5826111c8565b9050919050565b60008115159050919050565b600073ffffffffffffffffffffffffffffffffffffffff82169050919050565b6000819050919050565b82818337600083830152505050565b60005b8381101561121f578082015181840152602081019050611204565b8381111561122e576000848401525b50505050565b6000600282049050600182168061124c57607f821691505b602082108114156112605761125f611266565b5b50919050565b7f4e487b7100000000000000000000000000000000000000000000000000000000600052602260045260246000fd5b7f4e487b7100000000000000000000000000000000000000000000000000000000600052604160045260246000fd5b6000601f19601f8301169050919050565b6112de816111e8565b81146112e957600080fd5b5056fea2646970667358221220e08f707dfb9058f245260f30bb63628166919ba80223a6c442c7a6585d72803f64736f6c63430008000033",
  "linkReferences": {},
  "deployedLinkReferences": {}
}