{
  "_format": "hh-sol-artifact-1",
  "contractName": "FurnitureSupplyChain",
  "sourceName": "contracts/FurnitureSupplyChain.sol",
  "abi": [
    {
      "inputs": [],
      "stateMutability": "nonpayable",
      "type": "constructor"
    },
    {
      "anonymous": false,
      "inputs": [
        {
          "indexed": false,
          "internalType": "string",
          "name": "newProductID",
          "type": "string"
        },
        {
          "indexed": false,
          "internalType": "string",
          "name": "sourceTimberID",
          "type": "string"
        },
        {
          "indexed": false,
          "internalType": "address",
          "name": "manufacturer",
          "type": "address"
        },
        {
          "indexed": false,
          "internalType": "uint256",
          "name": "timestamp",
          "type": "uint256"
        }
      ],
      "name": "FinishedProductCreated",
      "type": "event"
    },
    {
      "anonymous": false,
      "inputs": [
        {
          "indexed": false,
          "internalType": "string",
          "name": "productID",
          "type": "string"
        },
        {
          "indexed": false,
          "internalType": "address",
          "name": "from",
          "type": "address"
        },
        {
          "indexed": false,
          "internalType": "address",
          "name": "to",
          "type": "address"
        },
        {
          "indexed": false,
          "internalType": "enum FurnitureSupplyChain.Stage",
          "name": "newStage",
          "type": "uint8"
        }
      ],
      "name": "OwnershipTransferred",
      "type": "event"
    },
    {
      "anonymous": false,
      "inputs": [
        {
          "indexed": false,
          "internalType": "string",
          "name": "productID",
          "type": "string"
        },
        {
          "indexed": false,
          "internalType": "address",
          "name": "supplier",
          "type": "address"
        },
        {
          "indexed": false,
          "internalType": "uint256",
          "name": "timestamp",
          "type": "uint256"
        }
      ],
      "name": "ProductRegistered",
      "type": "event"
    },
    {
      "anonymous": false,
      "inputs": [
        {
          "indexed": false,
          "internalType": "address",
          "name": "wallet",
          "type": "address"
        },
        {
          "indexed": false,
          "internalType": "enum FurnitureSupplyChain.Role",
          "name": "role",
          "type": "uint8"
        }
      ],
      "name": "RoleAssigned",
      "type": "event"
    },
    {
      "inputs": [],
      "name": "admin",
      "outputs": [
        {
          "internalType": "address",
          "name": "",
          "type": "address"
        }
      ],
      "stateMutability": "view",
      "type": "function"
    },
    {
      "inputs": [
        {
          "internalType": "uint256",
          "name": "",
          "type": "uint256"
        }
      ],
      "name": "allProductIDs",
      "outputs": [
        {
          "internalType": "string",
          "name": "",
          "type": "string"
        }
      ],
      "stateMutability": "view",
      "type": "function"
    },
    {
      "inputs": [
        {
          "internalType": "address",
          "name": "_wallet",
          "type": "address"
        },
        {
          "internalType": "enum FurnitureSupplyChain.Role",
          "name": "_role",
          "type": "uint8"
        }
      ],
      "name": "assignRole",
      "outputs": [],
      "stateMutability": "nonpayable",
      "type": "function"
    },
    {
      "inputs": [
        {
          "internalType": "string",
          "name": "_newProductID",
          "type": "string"
        },
        {
          "internalType": "string",
          "name": "_sourceTimberID",
          "type": "string"
        },
        {
          "internalType": "string",
          "name": "_notes",
          "type": "string"
        }
      ],
      "name": "createFinishedProduct",
      "outputs": [],
      "stateMutability": "nonpayable",
      "type": "function"
    },
    {
      "inputs": [
        {
          "internalType": "string",
          "name": "_productID",
          "type": "string"
        }
      ],
      "name": "getProduct",
      "outputs": [
        {
          "components": [
            {
              "internalType": "string",
              "name": "productID",
              "type": "string"
            },
            {
              "internalType": "string",
              "name": "timberBatchID",
              "type": "string"
            },
            {
              "internalType": "address",
              "name": "currentOwner",
              "type": "address"
            },
            {
              "internalType": "enum FurnitureSupplyChain.Stage",
              "name": "stage",
              "type": "uint8"
            },
            {
              "internalType": "uint256",
              "name": "timestamp",
              "type": "uint256"
            },
            {
              "internalType": "bool",
              "name": "exists",
              "type": "bool"
            },
            {
              "internalType": "bool",
              "name": "timberUsed",
              "type": "bool"
            }
          ],
          "internalType": "struct FurnitureSupplyChain.Product",
          "name": "",
          "type": "tuple"
        }
      ],
      "stateMutability": "view",
      "type": "function"
    },
    {
      "inputs": [
        {
          "internalType": "string",
          "name": "_productID",
          "type": "string"
        }
      ],
      "name": "getProductHistory",
      "outputs": [
        {
          "components": [
            {
              "internalType": "address",
              "name": "actor",
              "type": "address"
            },
            {
              "internalType": "enum FurnitureSupplyChain.Stage",
              "name": "stage",
              "type": "uint8"
            },
            {
              "internalType": "uint256",
              "name": "timestamp",
              "type": "uint256"
            },
            {
              "internalType": "string",
              "name": "notes",
              "type": "string"
            }
          ],
          "internalType": "struct FurnitureSupplyChain.HistoryEntry[]",
          "name": "",
          "type": "tuple[]"
        }
      ],
      "stateMutability": "view",
      "type": "function"
    },
    {
      "inputs": [
        {
          "internalType": "address",
          "name": "",
          "type": "address"
        }
      ],
      "name": "isRegistered",
      "outputs": [
        {
          "internalType": "bool",
          "name": "",
          "type": "bool"
        }
      ],
      "stateMutability": "view",
      "type": "function"
    },
    {
      "inputs": [
        {
          "internalType": "string",
          "name": "_productID",
          "type": "string"
        }
      ],
      "name": "isTimberUsed",
      "outputs": [
        {
          "internalType": "bool",
          "name": "",
          "type": "bool"
        }
      ],
      "stateMutability": "view",
      "type": "function"
    },
    {
      "inputs": [
        {
          "internalType": "string",
          "name": "",
          "type": "string"
        },
        {
          "internalType": "uint256",
          "name": "",
          "type": "uint256"
        }
      ],
      "name": "productHistory",
      "outputs": [
        {
          "internalType": "address",
          "name": "actor",
          "type": "address"
        },
        {
          "internalType": "enum FurnitureSupplyChain.Stage",
          "name": "stage",
          "type": "uint8"
        },
        {
          "internalType": "uint256",
          "name": "timestamp",
          "type": "uint256"
        },
        {
          "internalType": "string",
          "name": "notes",
          "type": "string"
        }
      ],
      "stateMutability": "view",
      "type": "function"
    },
    {
      "inputs": [
        {
          "internalType": "string",
          "name": "",
          "type": "string"
        }
      ],
      "name": "products",
      "outputs": [
        {
          "internalType": "string",
          "name": "productID",
          "type": "string"
        },
        {
          "internalType": "string",
          "name": "timberBatchID",
          "type": "string"
        },
        {
          "internalType": "address",
          "name": "currentOwner",
          "type": "address"
        },
        {
          "internalType": "enum FurnitureSupplyChain.Stage",
          "name": "stage",
          "type": "uint8"
        },
        {
          "internalType": "uint256",
          "name": "timestamp",
          "type": "uint256"
        },
        {
          "internalType": "bool",
          "name": "exists",
          "type": "bool"
        },
        {
          "internalType": "bool",
          "name": "timberUsed",
          "type": "bool"
        }
      ],
      "stateMutability": "view",
      "type": "function"
    },
    {
      "inputs": [
        {
          "internalType": "string",
          "name": "_productID",
          "type": "string"
        },
        {
          "internalType": "string",
          "name": "_timberBatchID",
          "type": "string"
        },
        {
          "internalType": "string",
          "name": "_notes",
          "type": "string"
        }
      ],
      "name": "registerProduct",
      "outputs": [],
      "stateMutability": "nonpayable",
      "type": "function"
    },
    {
      "inputs": [
        {
          "internalType": "address",
          "name": "",
          "type": "address"
        }
      ],
      "name": "roles",
      "outputs": [
        {
          "internalType": "enum FurnitureSupplyChain.Role",
          "name": "",
          "type": "uint8"
        }
      ],
      "stateMutability": "view",
      "type": "function"
    },
    {
      "inputs": [
        {
          "internalType": "string",
          "name": "_productID",
          "type": "string"
        },
        {
          "internalType": "address",
          "name": "_newOwner",
          "type": "address"
        },
        {
          "internalType": "string",
          "name": "_notes",
          "type": "string"
        }
      ],
      "name": "transferOwnership",
      "outputs": [],
      "stateMutability": "nonpayable",
      "type": "function"
    }
  ],
  "bytecode": "0x608060405234801561001057600080fd5b5033600260006101000a81548173ffffffffffffffffffffffffffffffffffffffff021916908373ffffffffffffffffffffffffffffffffffffffff160217905550613265806100616000396000f3fe608060405234801561001057600080fd5b50600436106100cf5760003560e01c806368111cce1161008c578063c3c5a54711610066578063c3c5a54714610251578063d4f5045314610281578063f27fe2c5146102b1578063f851a440146102cd576100cf565b806368111cce146101c15780638cbb9194146101f15780639937464214610221576100cf565b80630186a423146100d457806301970b111461010a5780633406b7181461013d5780633576455214610159578063582ce6a214610175578063630a195b146101a5575b600080fd5b6100ee60048036038101906100e991906122fe565b6102eb565b6040516101019796959493929190612c5c565b60405180910390f35b610124600480360381019061011f9190612455565b61049a565b6040516101349493929190612b0c565b60405180910390f35b610157600480360381019061015291906123be565b6105b2565b005b610173600480360381019061016e919061233f565b610b39565b005b61018f600480360381019061018a91906122fe565b6110bf565b60405161019c9190612b7a565b60405180910390f35b6101bf60048036038101906101ba91906122c2565b611165565b005b6101db60048036038101906101d691906122fe565b611315565b6040516101e89190612eac565b60405180910390f35b61020b600480360381019061020691906124a9565b6115fc565b6040516102189190612bb0565b60405180910390f35b61023b60048036038101906102369190612299565b6116a8565b6040516102489190612b95565b60405180910390f35b61026b60048036038101906102669190612299565b6116c8565b6040516102789190612b7a565b60405180910390f35b61029b600480360381019061029691906122fe565b6116e8565b6040516102a89190612b58565b60405180910390f35b6102cb60048036038101906102c691906123be565b61194c565b005b6102d561209a565b6040516102e29190612ac8565b60405180910390f35b600381805160208101820180518482526020830160208501208183528095505050505050600091509050806000018054610324906130ca565b80601f0160208091040260200160405190810160405280929190818152602001828054610350906130ca565b801561039d5780601f106103725761010080835404028352916020019161039d565b820191906000526020600020905b81548152906001019060200180831161038057829003601f168201915b5050505050908060010180546103b2906130ca565b80601f01602080910402602001604051908101604052809291908181526020018280546103de906130ca565b801561042b5780601f106104005761010080835404028352916020019161042b565b820191906000526020600020905b81548152906001019060200180831161040e57829003601f168201915b5050505050908060020160009054906101000a900473ffffffffffffffffffffffffffffffffffffffff16908060020160149054906101000a900460ff16908060030154908060040160009054906101000a900460ff16908060040160019054906101000a900460ff16905087565b60048280516020810182018051848252602083016020850120818352809550505050505081815481106104cc57600080fd5b9060005260206000209060030201600091509150508060000160009054906101000a900473ffffffffffffffffffffffffffffffffffffffff16908060000160149054906101000a900460ff169080600101549080600201805461052f906130ca565b80601f016020809104026020016040519081016040528092919081815260200182805461055b906130ca565b80156105a85780601f1061057d576101008083540402835291602001916105a8565b820191906000526020600020905b81548152906001019060200180831161058b57829003601f168201915b5050505050905084565b6000600160003373ffffffffffffffffffffffffffffffffffffffff1673ffffffffffffffffffffffffffffffffffffffff16815260200190815260200160002060009054906101000a900460ff1680156106c75750806004811115610641577f4e487b7100000000000000000000000000000000000000000000000000000000600052602160045260246000fd5b6000803373ffffffffffffffffffffffffffffffffffffffff1673ffffffffffffffffffffffffffffffffffffffff16815260200190815260200160002060009054906101000a900460ff1660048111156106c5577f4e487b7100000000000000000000000000000000000000000000000000000000600052602160045260246000fd5b145b610706576040517f08c379a00000000000000000000000000000000000000000000000000000000081526004016106fd90612e4c565b60405180910390fd5b6003846040516107169190612ab1565b908152602001604051809103902060040160009054906101000a900460ff1615610775576040517f08c379a000000000000000000000000000000000000000000000000000000000815260040161076c90612dac565b60405180910390fd5b6040518060e001604052808581526020018481526020013373ffffffffffffffffffffffffffffffffffffffff168152602001600060048111156107e2577f4e487b7100000000000000000000000000000000000000000000000000000000600052602160045260246000fd5b81526020014281526020016001151581526020016000151581525060038560405161080d9190612ab1565b908152602001604051809103902060008201518160000190805190602001906108379291906120c0565b5060208201518160010190805190602001906108549291906120c0565b5060408201518160020160006101000a81548173ffffffffffffffffffffffffffffffffffffffff021916908373ffffffffffffffffffffffffffffffffffffffff16021790555060608201518160020160146101000a81548160ff021916908360048111156108ed577f4e487b7100000000000000000000000000000000000000000000000000000000600052602160045260246000fd5b02179055506080820151816003015560a08201518160040160006101000a81548160ff02191690831515021790555060c08201518160040160016101000a81548160ff02191690831515021790555090505060048460405161094f9190612ab1565b908152602001604051809103902060405180608001604052803373ffffffffffffffffffffffffffffffffffffffff168152602001600060048111156109be577f4e487b7100000000000000000000000000000000000000000000000000000000600052602160045260246000fd5b815260200142815260200184815250908060018154018082558091505060019003906000526020600020906003020160009091909190915060008201518160000160006101000a81548173ffffffffffffffffffffffffffffffffffffffff021916908373ffffffffffffffffffffffffffffffffffffffff16021790555060208201518160000160146101000a81548160ff02191690836004811115610a8e577f4e487b7100000000000000000000000000000000000000000000000000000000600052602160045260246000fd5b0217905550604082015181600101556060820151816002019080519060200190610ab99291906120c0565b505050600584908060018154018082558091505060019003906000526020600020016000909190919091509080519060200190610af79291906120c0565b507f69a364a36de428def83b9136062f8e6214b44410a34f51f779f06dc745de8fca843342604051610b2b93929190612c1e565b60405180910390a150505050565b6000600384604051610b4b9190612ab1565b908152602001604051809103902090508060040160009054906101000a900460ff16610bac576040517f08c379a0000000000000000000000000000000000000000000000000000000008152600401610ba390612dcc565b60405180910390fd5b3373ffffffffffffffffffffffffffffffffffffffff168160020160009054906101000a900473ffffffffffffffffffffffffffffffffffffffff1673ffffffffffffffffffffffffffffffffffffffff1614610c3e576040517f08c379a0000000000000000000000000000000000000000000000000000000008152600401610c3590612d8c565b60405180910390fd5b600160008473ffffffffffffffffffffffffffffffffffffffff1673ffffffffffffffffffffffffffffffffffffffff16815260200190815260200160002060009054906101000a900460ff16610cca576040517f08c379a0000000000000000000000000000000000000000000000000000000008152600401610cc190612e0c565b60405180910390fd5b8060040160019054906101000a900460ff1615610d1c576040517f08c379a0000000000000000000000000000000000000000000000000000000008152600401610d1390612dec565b60405180910390fd5b600060018260020160149054906101000a900460ff166004811115610d6a577f4e487b7100000000000000000000000000000000000000000000000000000000600052602160045260246000fd5b610d749190612fa0565b6004811115610dac577f4e487b7100000000000000000000000000000000000000000000000000000000600052602160045260246000fd5b9050600480811115610de7577f4e487b7100000000000000000000000000000000000000000000000000000000600052602160045260246000fd5b816004811115610e20577f4e487b7100000000000000000000000000000000000000000000000000000000600052602160045260246000fd5b1115610e61576040517f08c379a0000000000000000000000000000000000000000000000000000000008152600401610e5890612d2c565b60405180910390fd5b838260020160006101000a81548173ffffffffffffffffffffffffffffffffffffffff021916908373ffffffffffffffffffffffffffffffffffffffff160217905550808260020160146101000a81548160ff02191690836004811115610ef1577f4e487b7100000000000000000000000000000000000000000000000000000000600052602160045260246000fd5b0217905550428260030181905550600485604051610f0f9190612ab1565b908152602001604051809103902060405180608001604052803373ffffffffffffffffffffffffffffffffffffffff168152602001836004811115610f7d577f4e487b7100000000000000000000000000000000000000000000000000000000600052602160045260246000fd5b815260200142815260200185815250908060018154018082558091505060019003906000526020600020906003020160009091909190915060008201518160000160006101000a81548173ffffffffffffffffffffffffffffffffffffffff021916908373ffffffffffffffffffffffffffffffffffffffff16021790555060208201518160000160146101000a81548160ff0219169083600481111561104d577f4e487b7100000000000000000000000000000000000000000000000000000000600052602160045260246000fd5b02179055506040820151816001015560608201518160020190805190602001906110789291906120c0565b5050507f0bdb028e0c410c06ee278a349760ced277ebc16b46b9f8ad02d694753872c236853386846040516110b09493929190612bd2565b60405180910390a15050505050565b60006003826040516110d19190612ab1565b908152602001604051809103902060040160009054906101000a900460ff1661112f576040517f08c379a000000000000000000000000000000000000000000000000000000000815260040161112690612dcc565b60405180910390fd5b60038260405161113f9190612ab1565b908152602001604051809103902060040160019054906101000a900460ff169050919050565b600260009054906101000a900473ffffffffffffffffffffffffffffffffffffffff1673ffffffffffffffffffffffffffffffffffffffff163373ffffffffffffffffffffffffffffffffffffffff16146111f5576040517f08c379a00000000000000000000000000000000000000000000000000000000081526004016111ec90612e8c565b60405180910390fd5b806000808473ffffffffffffffffffffffffffffffffffffffff1673ffffffffffffffffffffffffffffffffffffffff16815260200190815260200160002060006101000a81548160ff0219169083600481111561127c577f4e487b7100000000000000000000000000000000000000000000000000000000600052602160045260246000fd5b021790555060018060008473ffffffffffffffffffffffffffffffffffffffff1673ffffffffffffffffffffffffffffffffffffffff16815260200190815260200160002060006101000a81548160ff0219169083151502179055507f4ac36fa53f167ceb85964be512e01de2a3b8bdb9862f917da079deeeff689b388282604051611309929190612ae3565b60405180910390a15050565b61131d612146565b60038260405161132d9190612ab1565b908152602001604051809103902060040160009054906101000a900460ff1661138b576040517f08c379a000000000000000000000000000000000000000000000000000000000815260040161138290612dcc565b60405180910390fd5b60038260405161139b9190612ab1565b90815260200160405180910390206040518060e00160405290816000820180546113c4906130ca565b80601f01602080910402602001604051908101604052809291908181526020018280546113f0906130ca565b801561143d5780601f106114125761010080835404028352916020019161143d565b820191906000526020600020905b81548152906001019060200180831161142057829003601f168201915b50505050508152602001600182018054611456906130ca565b80601f0160208091040260200160405190810160405280929190818152602001828054611482906130ca565b80156114cf5780601f106114a4576101008083540402835291602001916114cf565b820191906000526020600020905b8154815290600101906020018083116114b257829003601f168201915b505050505081526020016002820160009054906101000a900473ffffffffffffffffffffffffffffffffffffffff1673ffffffffffffffffffffffffffffffffffffffff1673ffffffffffffffffffffffffffffffffffffffff1681526020016002820160149054906101000a900460ff166004811115611579577f4e487b7100000000000000000000000000000000000000000000000000000000600052602160045260246000fd5b60048111156115b1577f4e487b7100000000000000000000000000000000000000000000000000000000600052602160045260246000fd5b8152602001600382015481526020016004820160009054906101000a900460ff161515151581526020016004820160019054906101000a900460ff1615151515815250509050919050565b6005818154811061160c57600080fd5b906000526020600020016000915090508054611627906130ca565b80601f0160208091040260200160405190810160405280929190818152602001828054611653906130ca565b80156116a05780601f10611675576101008083540402835291602001916116a0565b820191906000526020600020905b81548152906001019060200180831161168357829003601f168201915b505050505081565b60006020528060005260406000206000915054906101000a900460ff1681565b60016020528060005260406000206000915054906101000a900460ff1681565b60606003826040516116fa9190612ab1565b908152602001604051809103902060040160009054906101000a900460ff16611758576040517f08c379a000000000000000000000000000000000000000000000000000000000815260040161174f90612dcc565b60405180910390fd5b6004826040516117689190612ab1565b9081526020016040518091039020805480602002602001604051908101604052809291908181526020016000905b8282101561194157838290600052602060002090600302016040518060800160405290816000820160009054906101000a900473ffffffffffffffffffffffffffffffffffffffff1673ffffffffffffffffffffffffffffffffffffffff1673ffffffffffffffffffffffffffffffffffffffff1681526020016000820160149054906101000a900460ff16600481111561185a577f4e487b7100000000000000000000000000000000000000000000000000000000600052602160045260246000fd5b6004811115611892577f4e487b7100000000000000000000000000000000000000000000000000000000600052602160045260246000fd5b8152602001600182015481526020016002820180546118b0906130ca565b80601f01602080910402602001604051908101604052809291908181526020018280546118dc906130ca565b80156119295780601f106118fe57610100808354040283529160200191611929565b820191906000526020600020905b81548152906001019060200180831161190c57829003601f168201915b50505050508152505081526020019060010190611796565b505050509050919050565b60018060003373ffffffffffffffffffffffffffffffffffffffff1673ffffffffffffffffffffffffffffffffffffffff16815260200190815260200160002060009054906101000a900460ff168015611a6057508060048111156119da577f4e487b7100000000000000000000000000000000000000000000000000000000600052602160045260246000fd5b6000803373ffffffffffffffffffffffffffffffffffffffff1673ffffffffffffffffffffffffffffffffffffffff16815260200190815260200160002060009054906101000a900460ff166004811115611a5e577f4e487b7100000000000000000000000000000000000000000000000000000000600052602160045260246000fd5b145b611a9f576040517f08c379a0000000000000000000000000000000000000000000000000000000008152600401611a9690612e4c565b60405180910390fd5b600383604051611aaf9190612ab1565b908152602001604051809103902060040160009054906101000a900460ff16611b0d576040517f08c379a0000000000000000000000000000000000000000000000000000000008152600401611b0490612e6c565b60405180910390fd5b3373ffffffffffffffffffffffffffffffffffffffff16600384604051611b349190612ab1565b908152602001604051809103902060020160009054906101000a900473ffffffffffffffffffffffffffffffffffffffff1673ffffffffffffffffffffffffffffffffffffffff1614611bbc576040517f08c379a0000000000000000000000000000000000000000000000000000000008152600401611bb390612e2c565b60405180910390fd5b600383604051611bcc9190612ab1565b908152602001604051809103902060040160019054906101000a900460ff1615611c2b576040517f08c379a0000000000000000000000000000000000000000000000000000000008152600401611c2290612d4c565b60405180910390fd5b600384604051611c3b9190612ab1565b908152602001604051809103902060040160009054906101000a900460ff1615611c9a576040517f08c379a0000000000000000000000000000000000000000000000000000000008152600401611c9190612d6c565b60405180910390fd5b6001600384604051611cac9190612ab1565b908152602001604051809103902060040160016101000a81548160ff0219169083151502179055506040518060e001604052808581526020018481526020013373ffffffffffffffffffffffffffffffffffffffff16815260200160016004811115611d41577f4e487b7100000000000000000000000000000000000000000000000000000000600052602160045260246000fd5b815260200142815260200160011515815260200160001515815250600385604051611d6c9190612ab1565b90815260200160405180910390206000820151816000019080519060200190611d969291906120c0565b506020820151816001019080519060200190611db39291906120c0565b5060408201518160020160006101000a81548173ffffffffffffffffffffffffffffffffffffffff021916908373ffffffffffffffffffffffffffffffffffffffff16021790555060608201518160020160146101000a81548160ff02191690836004811115611e4c577f4e487b7100000000000000000000000000000000000000000000000000000000600052602160045260246000fd5b02179055506080820151816003015560a08201518160040160006101000a81548160ff02191690831515021790555060c08201518160040160016101000a81548160ff021916908315150217905550905050600484604051611eae9190612ab1565b908152602001604051809103902060405180608001604052803373ffffffffffffffffffffffffffffffffffffffff16815260200160016004811115611f1d577f4e487b7100000000000000000000000000000000000000000000000000000000600052602160045260246000fd5b815260200142815260200184815250908060018154018082558091505060019003906000526020600020906003020160009091909190915060008201518160000160006101000a81548173ffffffffffffffffffffffffffffffffffffffff021916908373ffffffffffffffffffffffffffffffffffffffff16021790555060208201518160000160146101000a81548160ff02191690836004811115611fed577f4e487b7100000000000000000000000000000000000000000000000000000000600052602160045260246000fd5b02179055506040820151816001015560608201518160020190805190602001906120189291906120c0565b5050506005849080600181540180825580915050600190039060005260206000200160009091909190915090805190602001906120569291906120c0565b507fea5b070d8011b30f85947dd386533af3805753d1ac960f94fe6534a14036f57f8484334260405161208c9493929190612cd9565b60405180910390a150505050565b600260009054906101000a900473ffffffffffffffffffffffffffffffffffffffff1681565b8280546120cc906130ca565b90600052602060002090601f0160209004810192826120ee5760008555612135565b82601f1061210757805160ff1916838001178555612135565b82800160010185558215612135579182015b82811115612134578251825591602001919060010190612119565b5b50905061214291906121d5565b5090565b6040518060e001604052806060815260200160608152602001600073ffffffffffffffffffffffffffffffffffffffff168152602001600060048111156121b6577f4e487b7100000000000000000000000000000000000000000000000000000000600052602160045260246000fd5b8152602001600081526020016000151581526020016000151581525090565b5b808211156121ee5760008160009055506001016121d6565b5090565b600061220561220084612eff565b612ece565b90508281526020810184848401111561221d57600080fd5b612228848285613088565b509392505050565b60008135905061223f816131f1565b92915050565b60008135905061225481613208565b92915050565b600082601f83011261226b57600080fd5b813561227b8482602086016121f2565b91505092915050565b60008135905061229381613218565b92915050565b6000602082840312156122ab57600080fd5b60006122b984828501612230565b91505092915050565b600080604083850312156122d557600080fd5b60006122e385828601612230565b92505060206122f485828601612245565b9150509250929050565b60006020828403121561231057600080fd5b600082013567ffffffffffffffff81111561232a57600080fd5b6123368482850161225a565b91505092915050565b60008060006060848603121561235457600080fd5b600084013567ffffffffffffffff81111561236e57600080fd5b61237a8682870161225a565b935050602061238b86828701612230565b925050604084013567ffffffffffffffff8111156123a857600080fd5b6123b48682870161225a565b9150509250925092565b6000806000606084860312156123d357600080fd5b600084013567ffffffffffffffff8111156123ed57600080fd5b6123f98682870161225a565b935050602084013567ffffffffffffffff81111561241657600080fd5b6124228682870161225a565b925050604084013567ffffffffffffffff81111561243f57600080fd5b61244b8682870161225a565b9150509250925092565b6000806040838503121561246857600080fd5b600083013567ffffffffffffffff81111561248257600080fd5b61248e8582860161225a565b925050602061249f85828601612284565b9150509250929050565b6000602082840312156124bb57600080fd5b60006124c984828501612284565b91505092915050565b60006124de838361298d565b905092915050565b6124ef81612ff6565b82525050565b6124fe81612ff6565b82525050565b600061250f82612f3f565b6125198185612f62565b93508360208202850161252b85612f2f565b8060005b85811015612567578484038952815161254885826124d2565b945061255383612f55565b925060208a0199505060018101905061252f565b50829750879550505050505092915050565b61258281613008565b82525050565b61259181613008565b82525050565b6125a081613064565b82525050565b6125af81613076565b82525050565b6125be81613076565b82525050565b60006125cf82612f4a565b6125d98185612f73565b93506125e9818560208601613097565b6125f2816131b8565b840191505092915050565b600061260882612f4a565b6126128185612f84565b9350612622818560208601613097565b61262b816131b8565b840191505092915050565b600061264182612f4a565b61264b8185612f95565b935061265b818560208601613097565b80840191505092915050565b6000612674601683612f84565b91507f416c72656164792061742066696e616c207374616765000000000000000000006000830152602082019050919050565b60006126b4601383612f84565b91507f54696d62657220616c72656164792075736564000000000000000000000000006000830152602082019050919050565b60006126f4601983612f84565b91507f50726f6475637420494420616c726561647920657869737473000000000000006000830152602082019050919050565b6000612734601183612f84565b91507f4e6f742063757272656e74206f776e65720000000000000000000000000000006000830152602082019050919050565b6000612774601683612f84565b91507f50726f6475637420616c726561647920657869737473000000000000000000006000830152602082019050919050565b60006127b4601183612f84565b91507f50726f64756374206e6f7420666f756e640000000000000000000000000000006000830152602082019050919050565b60006127f4603783612f84565b91507f546869732074696d62657220686173206265656e20636f6e73756d65642c207560008301527f7365207468652066696e69736865642070726f647563740000000000000000006020830152604082019050919050565b600061285a601883612f84565b91507f526563697069656e74206e6f74207265676973746572656400000000000000006000830152602082019050919050565b600061289a601a83612f84565b91507f54696d626572206e6f742061737369676e656420746f20796f750000000000006000830152602082019050919050565b60006128da601183612f84565b91507f556e617574686f72697a656420726f6c650000000000000000000000000000006000830152602082019050919050565b600061291a601083612f84565b91507f54696d626572206e6f7420666f756e64000000000000000000000000000000006000830152602082019050919050565b600061295a600983612f84565b91507f4e6f742061646d696e00000000000000000000000000000000000000000000006000830152602082019050919050565b60006080830160008301516129a560008601826124e6565b5060208301516129b860208601826125a6565b5060408301516129cb6040860182612a93565b50606083015184820360608601526129e382826125c4565b9150508091505092915050565b600060e0830160008301518482036000860152612a0d82826125c4565b91505060208301518482036020860152612a2782826125c4565b9150506040830151612a3c60408601826124e6565b506060830151612a4f60608601826125a6565b506080830151612a626080860182612a93565b5060a0830151612a7560a0860182612579565b5060c0830151612a8860c0860182612579565b508091505092915050565b612a9c8161305a565b82525050565b612aab8161305a565b82525050565b6000612abd8284612636565b915081905092915050565b6000602082019050612add60008301846124f5565b92915050565b6000604082019050612af860008301856124f5565b612b056020830184612597565b9392505050565b6000608082019050612b2160008301876124f5565b612b2e60208301866125b5565b612b3b6040830185612aa2565b8181036060830152612b4d81846125fd565b905095945050505050565b60006020820190508181036000830152612b728184612504565b905092915050565b6000602082019050612b8f6000830184612588565b92915050565b6000602082019050612baa6000830184612597565b92915050565b60006020820190508181036000830152612bca81846125fd565b905092915050565b60006080820190508181036000830152612bec81876125fd565b9050612bfb60208301866124f5565b612c0860408301856124f5565b612c1560608301846125b5565b95945050505050565b60006060820190508181036000830152612c3881866125fd565b9050612c4760208301856124f5565b612c546040830184612aa2565b949350505050565b600060e0820190508181036000830152612c76818a6125fd565b90508181036020830152612c8a81896125fd565b9050612c9960408301886124f5565b612ca660608301876125b5565b612cb36080830186612aa2565b612cc060a0830185612588565b612ccd60c0830184612588565b98975050505050505050565b60006080820190508181036000830152612cf381876125fd565b90508181036020830152612d0781866125fd565b9050612d1660408301856124f5565b612d236060830184612aa2565b95945050505050565b60006020820190508181036000830152612d4581612667565b9050919050565b60006020820190508181036000830152612d65816126a7565b9050919050565b60006020820190508181036000830152612d85816126e7565b9050919050565b60006020820190508181036000830152612da581612727565b9050919050565b60006020820190508181036000830152612dc581612767565b9050919050565b60006020820190508181036000830152612de5816127a7565b9050919050565b60006020820190508181036000830152612e05816127e7565b9050919050565b60006020820190508181036000830152612e258161284d565b9050919050565b60006020820190508181036000830152612e458161288d565b9050919050565b60006020820190508181036000830152612e65816128cd565b9050919050565b60006020820190508181036000830152612e858161290d565b9050919050565b60006020820190508181036000830152612ea58161294d565b9050919050565b60006020820190508181036000830152612ec681846129f0565b905092915050565b6000604051905081810181811067ffffffffffffffff82111715612ef557612ef4613189565b5b8060405250919050565b600067ffffffffffffffff821115612f1a57612f19613189565b5b601f19601f8301169050602081019050919050565b6000819050602082019050919050565b600081519050919050565b600081519050919050565b6000602082019050919050565b600082825260208201905092915050565b600082825260208201905092915050565b600082825260208201905092915050565b600081905092915050565b6000612fab8261305a565b9150612fb68361305a565b9250827fffffffffffffffffffffffffffffffffffffffffffffffffffffffffffffffff03821115612feb57612fea6130fc565b5b828201905092915050565b60006130018261303a565b9050919050565b60008115159050919050565b6000819050613022826131c9565b919050565b6000819050613035826131dd565b919050565b600073ffffffffffffffffffffffffffffffffffffffff82169050919050565b6000819050919050565b600061306f82613014565b9050919050565b600061308182613027565b9050919050565b82818337600083830152505050565b60005b838110156130b557808201518184015260208101905061309a565b838111156130c4576000848401525b50505050565b600060028204905060018216806130e257607f821691505b602082108114156130f6576130f561315a565b5b50919050565b7f4e487b7100000000000000000000000000000000000000000000000000000000600052601160045260246000fd5b7f4e487b7100000000000000000000000000000000000000000000000000000000600052602160045260246000fd5b7f4e487b7100000000000000000000000000000000000000000000000000000000600052602260045260246000fd5b7f4e487b7100000000000000000000000000000000000000000000000000000000600052604160045260246000fd5b6000601f19601f8301169050919050565b600581106131da576131d961312b565b5b50565b600581106131ee576131ed61312b565b5b50565b6131fa81612ff6565b811461320557600080fd5b50565b6005811061321557600080fd5b50565b6132218161305a565b811461322c57600080fd5b5056fea2646970667358221220f807edb90bcb69bc325cd2ffb3e03f808203326c17f4d8f67bdec9f598f74e1964736f6c63430008000033",
  "linkReferences": {},
  "deployedLinkReferences": {}
}