{
  "_format": "hh-sol-artifact-1",
  "contractName": "FurnitureSupplyChain",
  "sourceName": "contracts/FurnitureSupplyChain.sol",
  "abi": [
    {
      "inputs": [],
      "stateMutability": "nonpayable",
      "type": "constructor"
    },
    {
      "anonymous": false,
      "inputs": [
        {
          "indexed": false,
          "internalType": "string",
          "name": "newProductID",
          "type": "string"
        },
        {
          "indexed": false,
          "internalType": "string",
          "name": "sourceTimberID",
          "type": "string"
        },
        {
          "indexed": false,
          "internalType": "address",
          "name": "manufacturer",
          "type": "address"
        },
        {
          "indexed": false,
          "internalType": "uint256",
          "name": "timestamp",
          "type": "uint256"
        }
      ],
      "name": "FinishedProductCreated",
      "type": "event"
    },
    {
      "anonymous": false,
      "inputs": [
        {
          "indexed": false,
          "internalType": "string",
          "name": "productID",
          "type": "string"
        },
        {
          "indexed": false,
          "internalType": "address",
          "name": "from",
          "type": "address"
        },
        {
          "indexed": false,
          "internalType": "address",
          "name": "to",
          "type": "address"
        },
        {
          "indexed": false,
          "internalType": "enum FurnitureSupplyChain.Stage",
          "name": "newStage",
          "type": "uint8"
        }
      ],
      "name": "OwnershipTransferred",
      "type": "event"
    },
    {
      "anonymous": false,
      "inputs": [
        {
          "indexed": false,
          "internalType": "string",
          "name": "productID",
          "type": "string"
        },
        {
          "indexed": false,
          "internalType": "address",
          "name": "supplier",
          "type": "address"
        },
        {
          "indexed": false,
          "internalType": "uint256",
          "name": "timestamp",
          "type": "uint256"
        }
      ],
      "name": "ProductRegistered",
      "type": "event"
    },
    {
      "anonymous": false,
      "inputs": [
        {
          "indexed": false,
          "internalType": "address",
          "name": "wallet",
          "type": "address"
        },
        {
          "indexed": false,
          "internalType": "enum FurnitureSupplyChain.Role",
          "name": "role",
          "type": "uint8"
        }
      ],
      "name": "RoleAssigned",
      "type": "event"
    },
    {
      "inputs": [],
      "name": "admin",
      "outputs": [
        {
          "internalType": "address",
          "name": "",
          "type": "address"
        }
      ],
      "stateMutability": "view",
      "type": "function"
    },
    {
      "inputs": [
        {
          "internalType": "uint256",
          "name": "",
          "type": "uint256"
        }
      ],
      "name": "allProductIDs",
      "outputs": [
        {
          "internalType": "string",
          "name": "",
          "type": "string"
        }
      ],
      "stateMutability": "view",
      "type": "function"
    },
    {
      "inputs": [
        {
          "internalType": "address",
          "name": "_wallet",
          "type": "address"
        },
        {
          "internalType": "enum FurnitureSupplyChain.Role",
          "name": "_role",
          "type": "uint8"
        }
      ],
      "name": "assignRole",
      "outputs": [],
      "stateMutability": "nonpayable",
      "type": "function"
    },
    {
      "inputs": [
        {
          "internalType": "string",
          "name": "_newProductID",
          "type": "string"
        },
        {
          "internalType": "string",
          "name": "_sourceTimberID",
          "type": "string"
        },
        {
          "internalType": "string",
          "name": "_notes",
          "type": "string"
        }
      ],
      "name": "createFinishedProduct",
      "outputs": [],
      "stateMutability": "nonpayable",
      "type": "function"
    },
    {
      "inputs": [
        {
          "internalType": "string",
          "name": "_productID",
          "type": "string"
        }
      ],
      "name": "getProduct",
      "outputs": [
        {
          "components": [
            {
              "internalType": "string",
              "name": "productID",
              "type": "string"
            },
            {
              "internalType": "string",
              "name": "timberBatchID",
              "type": "string"
            },
            {
              "internalType": "address",
              "name": "currentOwner",
              "type": "address"
            },
            {
              "internalType": "enum FurnitureSupplyChain.Stage",
              "name": "stage",
              "type": "uint8"
            },
            {
              "internalType": "uint256",
              "name": "timestamp",
              "type": "uint256"
            },
            {
              "internalType": "bool",
              "name": "exists",
              "type": "bool"
            },
            {
              "internalType": "bool",
              "name": "timberUsed",
              "type": "bool"
            }
          ],
          "internalType": "struct FurnitureSupplyChain.Product",
          "name": "",
          "type": "tuple"
        }
      ],
      "stateMutability": "view",
      "type": "function"
    },
    {
      "inputs": [
        {
          "internalType": "string",
          "name": "_productID",
          "type": "string"
        }
      ],
      "name": "getProductHistory",
      "outputs": [
        {
          "components": [
            {
              "internalType": "address",
              "name": "actor",
              "type": "address"
            },
            {
              "internalType": "enum FurnitureSupplyChain.Stage",
              "name": "stage",
              "type": "uint8"
            },
            {
              "internalType": "uint256",
              "name": "timestamp",
              "type": "uint256"
            },
            {
              "internalType": "string",
              "name": "notes",
              "type": "string"
            }
          ],
          "internalType": "struct FurnitureSupplyChain.HistoryEntry[]",
          "name": "",
          "type": "tuple[]"
        }
      ],
      "stateMutability": "view",
      "type": "function"
    },
    {
      "inputs": [
        {
          "internalType": "address",
          "name": "",
          "type": "address"
        }
      ],
      "name": "isRegistered",
      "outputs": [
        {
          "internalType": "bool",
          "name": "",
          "type": "bool"
        }
      ],
      "stateMutability": "view",
      "type": "function"
    },
    {
      "inputs": [
        {
          "internalType": "string",
          "name": "_productID",
          "type": "string"
        }
      ],
      "name": "isTimberUsed",
      "outputs": [
        {
          "internalType": "bool",
          "name": "",
          "type": "bool"
        }
      ],
      "stateMutability": "view",
      "type": "function"
    },
    {
      "inputs": [
        {
          "internalType": "string",
          "name": "",
          "type": "string"
        },
        {
          "internalType": "uint256",
          "name": "",
          "type": "uint256"
        }
      ],
      "name": "productHistory",
      "outputs": [
        {
          "internalType": "address",
          "name": "actor",
          "type": "address"
        },
        {
          "internalType": "enum FurnitureSupplyChain.Stage",
          "name": "stage",
          "type": "uint8"
        },
        {
          "internalType": "uint256",
          "name": "timestamp",
          "type": "uint256"
        },
        {
          "internalType": "string",
          "name": "notes",
          "type": "string"
        }
      ],
      "stateMutability": "view",
      "type": "function"
    },
    {
      "inputs": [
        {
          "internalType": "string",
          "name": "",
          "type": "string"
        }
      ],
      "name": "products",
      "outputs": [
        {
          "internalType": "string",
          "name": "productID",
          "type": "string"
        },
        {
          "internalType": "string",
          "name": "timberBatchID",
          "type": "string"
        },
        {
          "internalType": "address",
          "name": "currentOwner",
          "type": "address"
        },
        {
          "internalType": "enum FurnitureSupplyChain.Stage",
          "name": "stage",
          "type": "uint8"
        },
        {
          "internalType": "uint256",
          "name": "timestamp",
          "type": "uint256"
        },
        {
          "internalType": "bool",
          "name": "exists",
          "type": "bool"
        },
        {
          "internalType": "bool",
          "name": "timberUsed",
          "type": "bool"
        }
      ],
      "stateMutability": "view",
      "type": "function"
    },
    {
      "inputs": [
        {
          "internalType": "string",
          "name": "_productID",
          "type": "string"
        },
        {
          "internalType": "string",
          "name": "_timberBatchID",
          "type": "string"
        },
        {
          "internalType": "string",
          "name": "_notes",
          "type": "string"
        }
      ],
      "name": "registerProduct",
      "outputs": [],
      "stateMutability": "nonpayable",
      "type": "function"
    },
    {
      "inputs": [
        {
          "internalType": "address",
          "name": "",
          "type": "address"
        }
      ],
      "name": "roles",
      "outputs": [
        {
          "internalType": "enum FurnitureSupplyChain.Role",
          "name": "",
          "type": "uint8"
        }
      ],
      "stateMutability": "view",
      "type": "function"
    },
    {
      "inputs": [
        {
          "internalType": "string",
          "name": "_productID",
          "type": "string"
        },
        {
          "internalType": "address",
          "name": "_newOwner",
          "type": "address"
        },
        {
          "internalType": "string",
          "name": "_notes",
          "type": "string"
        }
      ],
      "name": "transferOwnership",
      "outputs": [],
      "stateMutability": "nonpayable",
      "type": "function"
    }
  ],
  "bytecode": "0x608060405234801561001057600080fd5b5033600260006101000a81548173ffffffffffffffffffffffffffffffffffffffff021916908373ffffffffffffffffffffffffffffffffffffffff160217905550613505806100616000396000f3fe608060405234801561001057600080fd5b50600436106100cf5760003560e01c806368111cce1161008c578063c3c5a54711610066578063c3c5a54714610251578063d4f5045314610281578063f27fe2c5146102b1578063f851a440146102cd576100cf565b806368111cce146101c15780638cbb9194146101f15780639937464214610221576100cf565b80630186a423146100d457806301970b111461010a5780633406b7181461013d5780633576455214610159578063582ce6a214610175578063630a195b146101a5575b600080fd5b6100ee60048036038101906100e99190612555565b6102eb565b6040516101019796959493929190612eb3565b60405180910390f35b610124600480360381019061011f91906126ac565b61049a565b6040516101349493929190612d63565b60405180910390f35b61015760048036038101906101529190612615565b6105b2565b005b610173600480360381019061016e9190612596565b610b39565b005b61018f600480360381019061018a9190612555565b6110bf565b60405161019c9190612dd1565b60405180910390f35b6101bf60048036038101906101ba9190612519565b611165565b005b6101db60048036038101906101d69190612555565b611315565b6040516101e89190613103565b60405180910390f35b61020b60048036038101906102069190612700565b6115fc565b6040516102189190612e07565b60405180910390f35b61023b600480360381019061023691906124f0565b6116a8565b6040516102489190612dec565b60405180910390f35b61026b600480360381019061026691906124f0565b6116c8565b6040516102789190612dd1565b60405180910390f35b61029b60048036038101906102969190612555565b6116e8565b6040516102a89190612daf565b60405180910390f35b6102cb60048036038101906102c69190612615565b61194c565b005b6102d5612264565b6040516102e29190612d1f565b60405180910390f35b60038180516020810182018051848252602083016020850120818352809550505050505060009150905080600001805461032490613321565b80601f016020809104026020016040519081016040528092919081815260200182805461035090613321565b801561039d5780601f106103725761010080835404028352916020019161039d565b820191906000526020600020905b81548152906001019060200180831161038057829003601f168201915b5050505050908060010180546103b290613321565b80601f01602080910402602001604051908101604052809291908181526020018280546103de90613321565b801561042b5780601f106104005761010080835404028352916020019161042b565b820191906000526020600020905b81548152906001019060200180831161040e57829003601f168201915b5050505050908060020160009054906101000a900473ffffffffffffffffffffffffffffffffffffffff16908060020160149054906101000a900460ff16908060030154908060040160009054906101000a900460ff16908060040160019054906101000a900460ff16905087565b60048280516020810182018051848252602083016020850120818352809550505050505081815481106104cc57600080fd5b9060005260206000209060030201600091509150508060000160009054906101000a900473ffffffffffffffffffffffffffffffffffffffff16908060000160149054906101000a900460ff169080600101549080600201805461052f90613321565b80601f016020809104026020016040519081016040528092919081815260200182805461055b90613321565b80156105a85780601f1061057d576101008083540402835291602001916105a8565b820191906000526020600020905b81548152906001019060200180831161058b57829003601f168201915b5050505050905084565b6000600160003373ffffffffffffffffffffffffffffffffffffffff1673ffffffffffffffffffffffffffffffffffffffff16815260200190815260200160002060009054906101000a900460ff1680156106c75750806004811115610641577f4e487b7100000000000000000000000000000000000000000000000000000000600052602160045260246000fd5b6000803373ffffffffffffffffffffffffffffffffffffffff1673ffffffffffffffffffffffffffffffffffffffff16815260200190815260200160002060009054906101000a900460ff1660048111156106c5577f4e487b7100000000000000000000000000000000000000000000000000000000600052602160045260246000fd5b145b610706576040517f08c379a00000000000000000000000000000000000000000000000000000000081526004016106fd906130a3565b60405180910390fd5b6003846040516107169190612d08565b908152602001604051809103902060040160009054906101000a900460ff1615610775576040517f08c379a000000000000000000000000000000000000000000000000000000000815260040161076c90613003565b60405180910390fd5b6040518060e001604052808581526020018481526020013373ffffffffffffffffffffffffffffffffffffffff168152602001600060048111156107e2577f4e487b7100000000000000000000000000000000000000000000000000000000600052602160045260246000fd5b81526020014281526020016001151581526020016000151581525060038560405161080d9190612d08565b9081526020016040518091039020600082015181600001908051906020019061083792919061228a565b50602082015181600101908051906020019061085492919061228a565b5060408201518160020160006101000a81548173ffffffffffffffffffffffffffffffffffffffff021916908373ffffffffffffffffffffffffffffffffffffffff16021790555060608201518160020160146101000a81548160ff021916908360048111156108ed577f4e487b7100000000000000000000000000000000000000000000000000000000600052602160045260246000fd5b02179055506080820151816003015560a08201518160040160006101000a81548160ff02191690831515021790555060c08201518160040160016101000a81548160ff02191690831515021790555090505060048460405161094f9190612d08565b908152602001604051809103902060405180608001604052803373ffffffffffffffffffffffffffffffffffffffff168152602001600060048111156109be577f4e487b7100000000000000000000000000000000000000000000000000000000600052602160045260246000fd5b815260200142815260200184815250908060018154018082558091505060019003906000526020600020906003020160009091909190915060008201518160000160006101000a81548173ffffffffffffffffffffffffffffffffffffffff021916908373ffffffffffffffffffffffffffffffffffffffff16021790555060208201518160000160146101000a81548160ff02191690836004811115610a8e577f4e487b7100000000000000000000000000000000000000000000000000000000600052602160045260246000fd5b0217905550604082015181600101556060820151816002019080519060200190610ab992919061228a565b505050600584908060018154018082558091505060019003906000526020600020016000909190919091509080519060200190610af792919061228a565b507f69a364a36de428def83b9136062f8e6214b44410a34f51f779f06dc745de8fca843342604051610b2b93929190612e75565b60405180910390a150505050565b6000600384604051610b4b9190612d08565b908152602001604051809103902090508060040160009054906101000a900460ff16610bac576040517f08c379a0000000000000000000000000000000000000000000000000000000008152600401610ba390613023565b60405180910390fd5b3373ffffffffffffffffffffffffffffffffffffffff168160020160009054906101000a900473ffffffffffffffffffffffffffffffffffffffff1673ffffffffffffffffffffffffffffffffffffffff1614610c3e576040517f08c379a0000000000000000000000000000000000000000000000000000000008152600401610c3590612fe3565b60405180910390fd5b600160008473ffffffffffffffffffffffffffffffffffffffff1673ffffffffffffffffffffffffffffffffffffffff16815260200190815260200160002060009054906101000a900460ff16610cca576040517f08c379a0000000000000000000000000000000000000000000000000000000008152600401610cc190613063565b60405180910390fd5b8060040160019054906101000a900460ff1615610d1c576040517f08c379a0000000000000000000000000000000000000000000000000000000008152600401610d1390613043565b60405180910390fd5b600060018260020160149054906101000a900460ff166004811115610d6a577f4e487b7100000000000000000000000000000000000000000000000000000000600052602160045260246000fd5b610d7491906131f7565b6004811115610dac577f4e487b7100000000000000000000000000000000000000000000000000000000600052602160045260246000fd5b9050600480811115610de7577f4e487b7100000000000000000000000000000000000000000000000000000000600052602160045260246000fd5b816004811115610e20577f4e487b7100000000000000000000000000000000000000000000000000000000600052602160045260246000fd5b1115610e61576040517f08c379a0000000000000000000000000000000000000000000000000000000008152600401610e5890612f83565b60405180910390fd5b838260020160006101000a81548173ffffffffffffffffffffffffffffffffffffffff021916908373ffffffffffffffffffffffffffffffffffffffff160217905550808260020160146101000a81548160ff02191690836004811115610ef1577f4e487b7100000000000000000000000000000000000000000000000000000000600052602160045260246000fd5b0217905550428260030181905550600485604051610f0f9190612d08565b908152602001604051809103902060405180608001604052803373ffffffffffffffffffffffffffffffffffffffff168152602001836004811115610f7d577f4e487b7100000000000000000000000000000000000000000000000000000000600052602160045260246000fd5b815260200142815260200185815250908060018154018082558091505060019003906000526020600020906003020160009091909190915060008201518160000160006101000a81548173ffffffffffffffffffffffffffffffffffffffff021916908373ffffffffffffffffffffffffffffffffffffffff16021790555060208201518160000160146101000a81548160ff0219169083600481111561104d577f4e487b7100000000000000000000000000000000000000000000000000000000600052602160045260246000fd5b021790555060408201518160010155606082015181600201908051906020019061107892919061228a565b5050507f0bdb028e0c410c06ee278a349760ced277ebc16b46b9f8ad02d694753872c236853386846040516110b09493929190612e29565b60405180910390a15050505050565b60006003826040516110d19190612d08565b908152602001604051809103902060040160009054906101000a900460ff1661112f576040517f08c379a000000000000000000000000000000000000000000000000000000000815260040161112690613023565b60405180910390fd5b60038260405161113f9190612d08565b908152602001604051809103902060040160019054906101000a900460ff169050919050565b600260009054906101000a900473ffffffffffffffffffffffffffffffffffffffff1673ffffffffffffffffffffffffffffffffffffffff163373ffffffffffffffffffffffffffffffffffffffff16146111f5576040517f08c379a00000000000000000000000000000000000000000000000000000000081526004016111ec906130e3565b60405180910390fd5b806000808473ffffffffffffffffffffffffffffffffffffffff1673ffffffffffffffffffffffffffffffffffffffff16815260200190815260200160002060006101000a81548160ff0219169083600481111561127c577f4e487b7100000000000000000000000000000000000000000000000000000000600052602160045260246000fd5b021790555060018060008473ffffffffffffffffffffffffffffffffffffffff1673ffffffffffffffffffffffffffffffffffffffff16815260200190815260200160002060006101000a81548160ff0219169083151502179055507f4ac36fa53f167ceb85964be512e01de2a3b8bdb9862f917da079deeeff689b388282604051611309929190612d3a565b60405180910390a15050565b61131d612310565b60038260405161132d9190612d08565b908152602001604051809103902060040160009054906101000a900460ff1661138b576040517f08c379a000000000000000000000000000000000000000000000000000000000815260040161138290613023565b60405180910390fd5b60038260405161139b9190612d08565b90815260200160405180910390206040518060e00160405290816000820180546113c490613321565b80601f01602080910402602001604051908101604052809291908181526020018280546113f090613321565b801561143d5780601f106114125761010080835404028352916020019161143d565b820191906000526020600020905b81548152906001019060200180831161142057829003601f168201915b5050505050815260200160018201805461145690613321565b80601f016020809104026020016040519081016040528092919081815260200182805461148290613321565b80156114cf5780601f106114a4576101008083540402835291602001916114cf565b820191906000526020600020905b8154815290600101906020018083116114b257829003601f168201915b505050505081526020016002820160009054906101000a900473ffffffffffffffffffffffffffffffffffffffff1673ffffffffffffffffffffffffffffffffffffffff1673ffffffffffffffffffffffffffffffffffffffff1681526020016002820160149054906101000a900460ff166004811115611579577f4e487b7100000000000000000000000000000000000000000000000000000000600052602160045260246000fd5b60048111156115b1577f4e487b7100000000000000000000000000000000000000000000000000000000600052602160045260246000fd5b8152602001600382015481526020016004820160009054906101000a900460ff161515151581526020016004820160019054906101000a900460ff1615151515815250509050919050565b6005818154811061160c57600080fd5b90600052602060002001600091509050805461162790613321565b80601f016020809104026020016040519081016040528092919081815260200182805461165390613321565b80156116a05780601f10611675576101008083540402835291602001916116a0565b820191906000526020600020905b81548152906001019060200180831161168357829003601f168201915b505050505081565b60006020528060005260406000206000915054906101000a900460ff1681565b60016020528060005260406000206000915054906101000a900460ff1681565b60606003826040516116fa9190612d08565b908152602001604051809103902060040160009054906101000a900460ff16611758576040517f08c379a000000000000000000000000000000000000000000000000000000000815260040161174f90613023565b60405180910390fd5b6004826040516117689190612d08565b9081526020016040518091039020805480602002602001604051908101604052809291908181526020016000905b8282101561194157838290600052602060002090600302016040518060800160405290816000820160009054906101000a900473ffffffffffffffffffffffffffffffffffffffff1673ffffffffffffffffffffffffffffffffffffffff1673ffffffffffffffffffffffffffffffffffffffff1681526020016000820160149054906101000a900460ff16600481111561185a577f4e487b7100000000000000000000000000000000000000000000000000000000600052602160045260246000fd5b6004811115611892577f4e487b7100000000000000000000000000000000000000000000000000000000600052602160045260246000fd5b8152602001600182015481526020016002820180546118b090613321565b80601f01602080910402602001604051908101604052809291908181526020018280546118dc90613321565b80156119295780601f106118fe57610100808354040283529160200191611929565b820191906000526020600020905b81548152906001019060200180831161190c57829003601f168201915b50505050508152505081526020019060010190611796565b505050509050919050565b60018060003373ffffffffffffffffffffffffffffffffffffffff1673ffffffffffffffffffffffffffffffffffffffff16815260200190815260200160002060009054906101000a900460ff168015611a6057508060048111156119da577f4e487b7100000000000000000000000000000000000000000000000000000000600052602160045260246000fd5b6000803373ffffffffffffffffffffffffffffffffffffffff1673ffffffffffffffffffffffffffffffffffffffff16815260200190815260200160002060009054906101000a900460ff166004811115611a5e577f4e487b7100000000000000000000000000000000000000000000000000000000600052602160045260246000fd5b145b611a9f576040517f08c379a0000000000000000000000000000000000000000000000000000000008152600401611a96906130a3565b60405180910390fd5b600383604051611aaf9190612d08565b908152602001604051809103902060040160009054906101000a900460ff16611b0d576040517f08c379a0000000000000000000000000000000000000000000000000000000008152600401611b04906130c3565b60405180910390fd5b3373ffffffffffffffffffffffffffffffffffffffff16600384604051611b349190612d08565b908152602001604051809103902060020160009054906101000a900473ffffffffffffffffffffffffffffffffffffffff1673ffffffffffffffffffffffffffffffffffffffff1614611bbc576040517f08c379a0000000000000000000000000000000000000000000000000000000008152600401611bb390613083565b60405180910390fd5b600383604051611bcc9190612d08565b908152602001604051809103902060040160019054906101000a900460ff1615611c2b576040517f08c379a0000000000000000000000000000000000000000000000000000000008152600401611c2290612fa3565b60405180910390fd5b600384604051611c3b9190612d08565b908152602001604051809103902060040160009054906101000a900460ff1615611c9a576040517f08c379a0000000000000000000000000000000000000000000000000000000008152600401611c9190612fc3565b60405180910390fd5b6001600384604051611cac9190612d08565b908152602001604051809103902060040160016101000a81548160ff0219169083151502179055506040518060e001604052808581526020018481526020013373ffffffffffffffffffffffffffffffffffffffff16815260200160016004811115611d41577f4e487b7100000000000000000000000000000000000000000000000000000000600052602160045260246000fd5b815260200142815260200160011515815260200160001515815250600385604051611d6c9190612d08565b90815260200160405180910390206000820151816000019080519060200190611d9692919061228a565b506020820151816001019080519060200190611db392919061228a565b5060408201518160020160006101000a81548173ffffffffffffffffffffffffffffffffffffffff021916908373ffffffffffffffffffffffffffffffffffffffff16021790555060608201518160020160146101000a81548160ff02191690836004811115611e4c577f4e487b7100000000000000000000000000000000000000000000000000000000600052602160045260246000fd5b02179055506080820151816003015560a08201518160040160006101000a81548160ff02191690831515021790555060c08201518160040160016101000a81548160ff0219169083151502179055509050506000600484604051611eb09190612d08565b9081526020016040518091039020905060005b818054905081101561206657600486604051611edf9190612d08565b9081526020016040518091039020828281548110611f26577f4e487b7100000000000000000000000000000000000000000000000000000000600052603260045260246000fd5b906000526020600020906003020190806001815401808255809150506001900390600052602060002090600302016000909190919091506000820160009054906101000a900473ffffffffffffffffffffffffffffffffffffffff168160000160006101000a81548173ffffffffffffffffffffffffffffffffffffffff021916908373ffffffffffffffffffffffffffffffffffffffff1602179055506000820160149054906101000a900460ff168160000160146101000a81548160ff02191690836004811115612022577f4e487b7100000000000000000000000000000000000000000000000000000000600052602160045260246000fd5b021790555060018201548160010155600282018160020190805461204590613321565b61205092919061239f565b505050808061205e90613353565b915050611ec3565b506004856040516120779190612d08565b908152602001604051809103902060405180608001604052803373ffffffffffffffffffffffffffffffffffffffff168152602001600160048111156120e6577f4e487b7100000000000000000000000000000000000000000000000000000000600052602160045260246000fd5b815260200142815260200185815250908060018154018082558091505060019003906000526020600020906003020160009091909190915060008201518160000160006101000a81548173ffffffffffffffffffffffffffffffffffffffff021916908373ffffffffffffffffffffffffffffffffffffffff16021790555060208201518160000160146101000a81548160ff021916908360048111156121b6577f4e487b7100000000000000000000000000000000000000000000000000000000600052602160045260246000fd5b02179055506040820151816001015560608201518160020190805190602001906121e192919061228a565b50505060058590806001815401808255809150506001900390600052602060002001600090919091909150908051906020019061221f92919061228a565b507fea5b070d8011b30f85947dd386533af3805753d1ac960f94fe6534a14036f57f858533426040516122559493929190612f30565b60405180910390a15050505050565b600260009054906101000a900473ffffffffffffffffffffffffffffffffffffffff1681565b82805461229690613321565b90600052602060002090601f0160209004810192826122b857600085556122ff565b82601f106122d157805160ff19168380011785556122ff565b828001600101855582156122ff579182015b828111156122fe5782518255916020019190600101906122e3565b5b50905061230c919061242c565b5090565b6040518060e001604052806060815260200160608152602001600073ffffffffffffffffffffffffffffffffffffffff16815260200160006004811115612380577f4e487b7100000000000000000000000000000000000000000000000000000000600052602160045260246000fd5b8152602001600081526020016000151581526020016000151581525090565b8280546123ab90613321565b90600052602060002090601f0160209004810192826123cd576000855561241b565b82601f106123de578054855561241b565b8280016001018555821561241b57600052602060002091601f016020900482015b8281111561241a5782548255916001019190600101906123ff565b5b509050612428919061242c565b5090565b5b8082111561244557600081600090555060010161242d565b5090565b600061245c61245784613156565b613125565b90508281526020810184848401111561247457600080fd5b61247f8482856132df565b509392505050565b60008135905061249681613491565b92915050565b6000813590506124ab816134a8565b92915050565b600082601f8301126124c257600080fd5b81356124d2848260208601612449565b91505092915050565b6000813590506124ea816134b8565b92915050565b60006020828403121561250257600080fd5b600061251084828501612487565b91505092915050565b6000806040838503121561252c57600080fd5b600061253a85828601612487565b925050602061254b8582860161249c565b9150509250929050565b60006020828403121561256757600080fd5b600082013567ffffffffffffffff81111561258157600080fd5b61258d848285016124b1565b91505092915050565b6000806000606084860312156125ab57600080fd5b600084013567ffffffffffffffff8111156125c557600080fd5b6125d1868287016124b1565b93505060206125e286828701612487565b925050604084013567ffffffffffffffff8111156125ff57600080fd5b61260b868287016124b1565b9150509250925092565b60008060006060848603121561262a57600080fd5b600084013567ffffffffffffffff81111561264457600080fd5b612650868287016124b1565b935050602084013567ffffffffffffffff81111561266d57600080fd5b612679868287016124b1565b925050604084013567ffffffffffffffff81111561269657600080fd5b6126a2868287016124b1565b9150509250925092565b600080604083850312156126bf57600080fd5b600083013567ffffffffffffffff8111156126d957600080fd5b6126e5858286016124b1565b92505060206126f6858286016124db565b9150509250929050565b60006020828403121561271257600080fd5b6000612720848285016124db565b91505092915050565b60006127358383612be4565b905092915050565b6127468161324d565b82525050565b6127558161324d565b82525050565b600061276682613196565b61277081856131b9565b93508360208202850161278285613186565b8060005b858110156127be578484038952815161279f8582612729565b94506127aa836131ac565b925060208a01995050600181019050612786565b50829750879550505050505092915050565b6127d98161325f565b82525050565b6127e88161325f565b82525050565b6127f7816132bb565b82525050565b612806816132cd565b82525050565b612815816132cd565b82525050565b6000612826826131a1565b61283081856131ca565b93506128408185602086016132ee565b61284981613458565b840191505092915050565b600061285f826131a1565b61286981856131db565b93506128798185602086016132ee565b61288281613458565b840191505092915050565b6000612898826131a1565b6128a281856131ec565b93506128b28185602086016132ee565b80840191505092915050565b60006128cb6016836131db565b91507f416c72656164792061742066696e616c207374616765000000000000000000006000830152602082019050919050565b600061290b6013836131db565b91507f54696d62657220616c72656164792075736564000000000000000000000000006000830152602082019050919050565b600061294b6019836131db565b91507f50726f6475637420494420616c726561647920657869737473000000000000006000830152602082019050919050565b600061298b6011836131db565b91507f4e6f742063757272656e74206f776e65720000000000000000000000000000006000830152602082019050919050565b60006129cb6016836131db565b91507f50726f6475637420616c726561647920657869737473000000000000000000006000830152602082019050919050565b6000612a0b6011836131db565b91507f50726f64756374206e6f7420666f756e640000000000000000000000000000006000830152602082019050919050565b6000612a4b6037836131db565b91507f546869732074696d62657220686173206265656e20636f6e73756d65642c207560008301527f7365207468652066696e69736865642070726f647563740000000000000000006020830152604082019050919050565b6000612ab16018836131db565b91507f526563697069656e74206e6f74207265676973746572656400000000000000006000830152602082019050919050565b6000612af1601a836131db565b91507f54696d626572206e6f742061737369676e656420746f20796f750000000000006000830152602082019050919050565b6000612b316011836131db565b91507f556e617574686f72697a656420726f6c650000000000000000000000000000006000830152602082019050919050565b6000612b716010836131db565b91507f54696d626572206e6f7420666f756e64000000000000000000000000000000006000830152602082019050919050565b6000612bb16009836131db565b91507f4e6f742061646d696e00000000000000000000000000000000000000000000006000830152602082019050919050565b6000608083016000830151612bfc600086018261273d565b506020830151612c0f60208601826127fd565b506040830151612c226040860182612cea565b5060608301518482036060860152612c3a828261281b565b9150508091505092915050565b600060e0830160008301518482036000860152612c64828261281b565b91505060208301518482036020860152612c7e828261281b565b9150506040830151612c93604086018261273d565b506060830151612ca660608601826127fd565b506080830151612cb96080860182612cea565b5060a0830151612ccc60a08601826127d0565b5060c0830151612cdf60c08601826127d0565b508091505092915050565b612cf3816132b1565b82525050565b612d02816132b1565b82525050565b6000612d14828461288d565b915081905092915050565b6000602082019050612d34600083018461274c565b92915050565b6000604082019050612d4f600083018561274c565b612d5c60208301846127ee565b9392505050565b6000608082019050612d78600083018761274c565b612d85602083018661280c565b612d926040830185612cf9565b8181036060830152612da48184612854565b905095945050505050565b60006020820190508181036000830152612dc9818461275b565b905092915050565b6000602082019050612de660008301846127df565b92915050565b6000602082019050612e0160008301846127ee565b92915050565b60006020820190508181036000830152612e218184612854565b905092915050565b60006080820190508181036000830152612e438187612854565b9050612e52602083018661274c565b612e5f604083018561274c565b612e6c606083018461280c565b95945050505050565b60006060820190508181036000830152612e8f8186612854565b9050612e9e602083018561274c565b612eab6040830184612cf9565b949350505050565b600060e0820190508181036000830152612ecd818a612854565b90508181036020830152612ee18189612854565b9050612ef0604083018861274c565b612efd606083018761280c565b612f0a6080830186612cf9565b612f1760a08301856127df565b612f2460c08301846127df565b98975050505050505050565b60006080820190508181036000830152612f4a8187612854565b90508181036020830152612f5e8186612854565b9050612f6d604083018561274c565b612f7a6060830184612cf9565b95945050505050565b60006020820190508181036000830152612f9c816128be565b9050919050565b60006020820190508181036000830152612fbc816128fe565b9050919050565b60006020820190508181036000830152612fdc8161293e565b9050919050565b60006020820190508181036000830152612ffc8161297e565b9050919050565b6000602082019050818103600083015261301c816129be565b9050919050565b6000602082019050818103600083015261303c816129fe565b9050919050565b6000602082019050818103600083015261305c81612a3e565b9050919050565b6000602082019050818103600083015261307c81612aa4565b9050919050565b6000602082019050818103600083015261309c81612ae4565b9050919050565b600060208201905081810360008301526130bc81612b24565b9050919050565b600060208201905081810360008301526130dc81612b64565b9050919050565b600060208201905081810360008301526130fc81612ba4565b9050919050565b6000602082019050818103600083015261311d8184612c47565b905092915050565b6000604051905081810181811067ffffffffffffffff8211171561314c5761314b613429565b5b8060405250919050565b600067ffffffffffffffff82111561317157613170613429565b5b601f19601f8301169050602081019050919050565b6000819050602082019050919050565b600081519050919050565b600081519050919050565b6000602082019050919050565b600082825260208201905092915050565b600082825260208201905092915050565b600082825260208201905092915050565b600081905092915050565b6000613202826132b1565b915061320d836132b1565b9250827fffffffffffffffffffffffffffffffffffffffffffffffffffffffffffffffff038211156132425761324161339c565b5b828201905092915050565b600061325882613291565b9050919050565b60008115159050919050565b600081905061327982613469565b919050565b600081905061328c8261347d565b919050565b600073ffffffffffffffffffffffffffffffffffffffff82169050919050565b6000819050919050565b60006132c68261326b565b9050919050565b60006132d88261327e565b9050919050565b82818337600083830152505050565b60005b8381101561330c5780820151818401526020810190506132f1565b8381111561331b576000848401525b50505050565b6000600282049050600182168061333957607f821691505b6020821081141561334d5761334c6133fa565b5b50919050565b600061335e826132b1565b91507fffffffffffffffffffffffffffffffffffffffffffffffffffffffffffffffff8214156133915761339061339c565b5b600182019050919050565b7f4e487b7100000000000000000000000000000000000000000000000000000000600052601160045260246000fd5b7f4e487b7100000000000000000000000000000000000000000000000000000000600052602160045260246000fd5b7f4e487b7100000000000000000000000000000000000000000000000000000000600052602260045260246000fd5b7f4e487b7100000000000000000000000000000000000000000000000000000000600052604160045260246000fd5b6000601f19601f8301169050919050565b6005811061347a576134796133cb565b5b50565b6005811061348e5761348d6133cb565b5b50565b61349a8161324d565b81146134a557600080fd5b50565b600581106134b557600080fd5b50565b6134c1816132b1565b81146134cc57600080fd5b5056fea26469706673582212204b72d516f21d4cc172b55fd6882b6ad1027437d5c9d481b848b3038bc4dc26b964736f6c63430008000033",
  "linkReferences": {},
  "deployedLinkReferences": {}
}